:020000040800F2
:10000000E0120020E10300083D0400083D04000860
:100010003D0400083D0400083D0400080000000005
:100020000000000000000000000000003D04000887
:100030003D040008000000003D0400083D040008E5
:100040003D0400083D0400083D0400083D0400088C
:100050003D0400083D040008B10D00083D040008FF
:100060003D0400083D0400083D0400083D0400086C
:100070003D0400083D0400083D0400083D0400085C
:100080003D0400083D0400083D0400083D0400084C
:100090003D0400083D0400083D0400083D0400083C
:1000A0003D0400083D0400083D0400083D0400082C
:1000B000750D00083D0400083D0400083D040008DB
:1000C0003D0400083D0400083D0400083D0400080C
:1000D0003D0400083D0400083D0400083D040008FC
:1000E0003D0400083D0400083D0400083D040008EC
:1000F0003D0400083D0400083D0400083D040008DC
:100100003D0400083D0400083D0400083D040008CB
:100110003D0400083D0400083D0400083D040008BB
:100120003D0400083D0400083D0400083D040008AB
:100130003D0400083D0400083D0400083D0400089B
:100140003D0400083D0400083D0400083D0400088B
:100150003D0400083D0400083D0400083D0400087B
:100160003D0400083D0400083D0400083D0400086B
:100170003D0400083D0400083D0400083D0400085B
:100180003D0400083D04000890B484B000AF03466D
:100190000A46FB711346BB710023FB60BB7903F079
:1001A00003039B000F2202FA03F3FB601649BB799D
:1001B0009B08DBB21846144ABB799B08DBB20233BA
:1001C00052F82320FB68DB431A40831C41F82320AC
:1001D0000D48BB799B08DBB21C460B4ABB799B08D8
:1001E000DBB2023352F82320F979BB7903F0030321
:1001F0009B0001FA03F31A43A31C40F8232000BF1D
:100200001037BD4690BC70470038014080B58AB0B9
:1002100000AF7860396000237B6200233B620023DB
:10022000FB610023BB617B681B8A9BB27B627B6A9C
:1002300023F440537B623B68DB881A467B6A134396
:100240007B627B6A9AB27B681A827B689B899BB2CD
:100250007B627B6A23F4B05323F00C037B623B6820
:100260009A883B681B8913439AB23B685B891343A6
:100270009BB21A467B6A13437B627B6A9AB27B68A5
:100280009A817B689B8A9BB27B627B6A23F4407372
:100290007B623B689B891A467B6A13437B627B6A5D
:1002A0009AB27B689A8207F10803184600F0D8FFDB
:1002B0007B68304A934203D07B682F4A934202D135
:1002C0007B693B6201E03B693B627B689B899BB237
:1002D0001BB2002B0CDA3A6A13469B0013449A00B7
:1002E0001A443B681B685B00B2FBF3F3FB610BE055
:1002F0003A6A13469B0013449A001A443B681B68F1
:100300009B00B2FBF3F3FB61FB691C4AA2FB0323D6
:100310005B091B017B627B6A1B09642202FB03F3FE
:10032000FA69D31ABB617B689B899BB21BB2002B15
:100330000CDABB69DB003233104AA2FB03235B09F2
:1003400003F007037A6A13437B620BE0BB691B016E
:1003500032330A4AA2FB03235B0903F00F037A6AD4
:1003600013437B627B6A9AB27B681A8100BF28378D
:10037000BD4680BD00100140001401401F85EB51B7
:1003800080B483B000AF78600B46FB70FB78002B25
:1003900008D07B689B899BB243F400539AB27B6878
:1003A0009A8107E07B689B899BB223F400539AB241
:1003B0007B689A8100BF0C37BD4680BC704780B413
:1003C00083B000AF78600B467B807B88C3F3080363
:1003D0009AB27B689A8000BF0C37BD4680BC7047DC
:1003E00080B582B000AF104B7B60104B3B6007E0E4
:1003F0003B681A1D3A607A68111D796012681A60AC
:100400003B680B4A9342F3D30A480B494FF0000272
:100410008842B8BF40F8042BFADB00F015F800BFA3
:100420000837BD4680BD00BF98500008000000207E
:10043000E8080020E8080020DC0A002080B400AFB3
:10044000FEE70000000000002DE9F04F85B004AF8A
:1004500001F04EFD02220221C14801F077FF024661
:10046000C04B1A600221022001F028FF0246BE4B59
:100470001A60BC4B1B681946BB4802F047F80122C2
:100480000221BA4801F062FF0246B94B1A6001210D
:10049000022001F013FF0246B64B1A60022202212D
:1004A000B54801F053FF0246B44B1A600221022006
:1004B00001F004FF0246B24B1A600221022001F053
:1004C000FDFE0246AF4B1A6002220221AE4801F047
:1004D0003DFF0246AD4B1A600221022001F0EEFE04
:1004E0000246AB4B1A6002220221AA4801F02EFFFD
:1004F0000246A94B1A6002220221A84801F026FFF9
:100500000246A74B1A600221022001F0D7FE0246E4
:10051000A44B1A600221022001F0D0FE0246A24B39
:100520001A600221022001F0C9FE02469F4B1A60A8
:100530000221022001F0C2FE02469D4B1A600221F8
:10054000022001F0BBFE02469A4B1A6002210220F3
:1005500001F0B4FE0246984B1A600121022001F01E
:10056000ADFE0246954B1A600121022001F0A6FE65
:100570000246934B1A600121022001F09FFE0246C1
:10058000904B1A600121022001F098FE02468E4B2A
:100590001A600221022001F091FE02468B4B1A6084
:1005A0008A4801F05DFF0221022001F087FE024629
:1005B000874B1A600221022001F080FE0246854B23
:1005C0001A6000F013FC00F08DFC00F02DFC4FF4DD
:1005D000E13000F017FD00F0BFFC7F497F4800F0DC
:1005E00055FD01224FF480517D4801F011FC7D4BF7
:1005F0001B78013B052B00F27F8301A252F823F008
:10060000F90C000819060008050800084F0C00083E
:10061000F90C0008F90C0008002301220821724897
:1006200000F0BBFF704801F081F800BF02216E4866
:1006300001F097F80346002BF8D06B4801F085F8DD
:1006400003461A46694B1A80684B1B881A461346A4
:100650005B001344184603F0F7FB4FF00002644BB5
:1006600003F058FC02460B461046194636A3D3E960
:10067000002303F079FD02460B465E49C1E90023E1
:10068000002301220921584800F087FF564801F055
:100690004DF800BF0221544801F063F80346002BD7
:1006A000F8D0514801F051F803461A464F4B1A80D2
:1006B0004E4B1B8840F63302934207D84E494FF009
:1006C00000024FF00003C1E9002310E0474B1B88F4
:1006D000A3F63403184603F0B7FB1DA3D3E90023A8
:1006E00003F018FC02460B464349C1E900233D4B89
:1006F00003221A703F4BD3E9000117A3D3E900236B
:1007000003F084FE0346002B00D1F6E200F0DAFB92
:1007100000220221394801F07BFB01224FF4804185
:100720002F4801F075FB00224FF480512C4801F056
:100730006FFB3349294800F0A9FC2A4B06221A70A6
:10074000DBE200BFAFF300800000000000FEAF401E
:10075000FB9201103C3B793F33333333333320403A
:10076000080000208C0A0020880A002028000020B1
:10077000F4090020A009002038000020E009002032
:10078000080A00208009002058000020100A0020DC
:10079000B4090020E8080020980900207800002013
:1007A000180A0020F00900209C090020E809002018
:1007B000F8090020E4090020EC090020140A0020B8
:1007C000900A002040090020B0090020200A0020E3
:1007D0001C0A00206009002044500008001001405D
:1007E000000C024000000020002001400C0A002004
:1007F00000001240000A0020880900200008024082
:1008000058500008BA4B1968BA4B1B681A46BA48C8
:1008100001F042FFB64B1968B84B1B681A46B8483E
:1008200001F03AFFB64B1968B64B1B681A46B6483A
:1008300001F032FFB44B1968B44B1B681A46B44838
:1008400001F0AAFEAC4B196801230122B14801F066
:10085000BCFDA94B196801230222AF4801F0B5FD88
:10086000AE4B1B685E68AC4BD3E900014FF0000251
:10087000AB4B03F09DF902460B46104619468AA37E
:10088000D3E9002303F046FB02460B469046994607
:10089000A04BD3E900234FF00000A14903F086F9F3
:1008A00002460B4692469B469A4BD3E900234FF0F3
:1008B00000009B4903F07AF902460B465046594620
:1008C00003F028FB02460B464046494603F04CFC29
:1008D00002460B46904699468E4BD3E9000174A31D
:1008E000D3E9002303F016FB02460B4672A1D1E9BF
:1008F000000102F0B3F872A3D3E9002303F00AFB6E
:1009000002460B464046494603F050F902460B4664
:10091000C6E90023814B1B685B6803F108067D4B29
:10092000D3E900014FF000027D4B03F01DFC0246AD
:100930000B464FF000007B4903F038F902460B46A6
:1009400061A1D1E9000103F00FFC02460B461046FD
:1009500019465FA3D3E9002303F02AF902460B46A8
:10096000144683F00045C6E900456F4B1B685E687E
:10097000694BD3E9000156A3D3E9002303F0CAFA77
:1009800002460B4654A1D1E9000103F00FF90246DB
:100990000B46904699465F4BD3E900015E4BD3E985
:1009A000002303F005F902460B46104619464CA3F6
:1009B000D3E9002303F0AEFA02460B4692469B466B
:1009C000544BD3E900234FF00000554903F0EEF8F3
:1009D00002460B465046594603F0C6FB02460B46FC
:1009E0004046494603F0E2F802460B4690469946D7
:1009F000484BD3E900012EA3D3E9002303F08AFA80
:100A000002460B462CA1D1E9000102F027F836A3DB
:100A1000D3E9002303F07EFA02460B4640464946DE
:100A200003F0C6F802460B46C6E900233E4B1B689E
:100A30005B6803F10801384BD3E90023C1E90023C7
:100A40003A4B1B6859683A4BD3E90023C1E90023AC
:100A5000364B1B685B6803F10801364BD3E9002372
:100A6000C1E900232D4B1B681946334801F04EFDA8
:100A7000274B1968304B1B681A46304801F00CFEB2
:100A8000264B19682D4B1B681A462D4801F004FEB1
:100A90002B4B19682B4B1B681A462B4801F07CFD29
:100AA000294B1B68194651E0F33842C60D1BC1BFE4
:100AB000B2A69611D95405C06B57148B0ABF0540D6
:100AC00022FB519F423005403E65200BFC688E3F63
:100AD000FA7E6ABC7493683F3B014D840D0F26403B
:100AE000F33842C60D1BC13FD3BCE3141DC9EF3F11
:100AF0008C0A0020F4090020A0090020E009002051
:100B0000F0090020880A00209C0900209809002094
:100B1000080A00205809002090090020100A00202F
:100B2000000022400000F03F900A0020140A00203C
:100B3000000A002088090020B4090020E8090020EC
:100B4000F8090020180A0020E40900206B4801F091
:100B50001EFE6B4B1968694B1B681A46694801F009
:100B60009BFD694B1968694B1B681A46684801F080
:100B700053FD644B1968664B1B681A46654801F0C3
:100B80008BFD654B1968634B1B681A46634801F07F
:100B900003FD5C4B1968624B1B681A46614801F003
:100BA0007BFD614B19685F4B1B681A465F4801F07B
:100BB00033FD5E4B19685E4B1B681A465D4801F0B9
:100BC0006BFD564B1B685B68D3E900014FF00002D8
:100BD000594B03F02FFC0346002B08D04F4B1B68EA
:100BE00059684FF00002544BC1E9002316E04B4B0B
:100BF0001B685B68D3E900014FF000024FF000036F
:100C000003F004FC0346002B08D0444B1B685968D2
:100C10004FF000024FF00003C1E900233F4B196879
:100C200001230122454801F0D0FB3C4B1968012308
:100C30000222434801F0C9FB344B19680123012209
:100C4000404801F0C2FB404B04221A7055E03F4B74
:100C5000D3E900231046194603F00CFC0346092291
:100C60003B49184600F0AAFA3A4BD3E90023104654
:100C7000194603F0FFFB034609223749184600F0E6
:100C80009DFA2E4BD3E900231046194603F0F2FBE0
:100C9000034609223149184600F090FA284BD3E95F
:100CA00000231046194603F0E5FB034609222C49B0
:100CB000184600F083FA234BD3E900231046194667
:100CC00003F0D8FB034609222649184600F076FABD
:100CD000244B0293224B0193204B00931E4B1C4A42
:100CE0002149224800F0F1FF2049214800F0CEF9C7
:100CF000154B05221A7000E000BF78E4EC090020D3
:100D0000E809002080090020140A0020900A002031
:100D100040090020B0090020A0090020F4090020AB
:100D2000100A00201C0A0020200A00206009002070
:100D3000080A0020E009002000002240A809002045
:100D4000980A00207809002000000020880900206F
:100D500064090020000A0020B8090020CC09002006
:100D600044090020A00A002060500008240A002046
:100D70000010014080B500AF01214FF0804001F02C
:100D800033FE0346002B0CD0074B02221A704FF49F
:100D90008051064801F053F801214FF0804001F0E6
:100DA0004CFE00BF80BD00BF00000020000C0240D0
:100DB00080B500AF012001F0EDF90346002B0ED005
:100DC00001220221074801F023F800F049F800F061
:100DD00003F9054B02221A70012001F0FFF900BF50
:100DE00080BD00BF000802400000002080B582B036
:100DF00000AF0121082000F0DBFA01233B71002342
:100E0000BB714FF470433B600023FB7102237B7185
:100E10003B461946034800F06EFF00BF0837BD4649
:100E200080BD00BF000C024080B582B000AF012140
:100E3000042000F0BDFA01233B710023BB710223A3
:100E40003B600023FB7102237B713B46194603483C
:100E500000F051FF00BF0837BD4680BD00080240CA
:100E600080B584B000AF0121012000F0BFFA42F24A
:100E7000CF03BB8042F20F73BB600023BB81002312
:100E8000FB803B1D19464FF0804001F001FD01221F
:100E900001214FF0804001F084FD01214FF080409E
:100EA00001F060FD1C233B7000237B700023BB70AE
:100EB0000123FB703B46184601F09EF900BF103736
:100EC000BD4680BD80B500AF002201214FF08040BB
:100ED00001F067FD00214FF0804001F043FD00BFAD
:100EE00080BD000080B588B000AF0121022000F075
:100EF0005FFA01214FF4807000F096FA03233B77EC
:100F00000323BB610123BB770023FB7707F11803A1
:100F100019460F4800F0EFFE00F0C2FA00233B60D4
:100F200000233B7100237B710023BB6000233B61E6
:100F300001233B753B461946064800F0BFFA0121E4
:100F4000044800F00FFB00BF2037BD4680BD00BF46
:100F5000000402400020014080B586B000AF0121AE
:100F6000012000F025FA01214FF4804000F05CFAE6
:100F700000233B750023BB7501233B610223FB75F6
:100F800003237B7507F110031946124800F0B3FEE6
:100F900000210020FFF7F8F80123BB600123BB7399
:100FA00000233B7308237B7307F10803184601F005
:100FB0007FF806233B7100237B710023BB71012363
:100FC000FB713B1D184601F017F900BF1837BD46ED
:100FD00080BD00BF0000024080B582B000AF01F0CC
:100FE0004DF806233B7100237B710023BB71002366
:100FF000FB713B1D184601F0FFF800BF0837BD46E6
:1010000080BD000080B588B000AF7860012110205D
:1010100000F00AFA0121022000F0CAF9C023BB61E6
:1010200002233B7702237B770023BB770123FB77E7
:1010300007F118031946134800F05DFE0722062148
:10104000104800F00DFF072207210E4800F008FFAE
:101050007B68BB600023BB810023FB8100233B82B4
:101060000023BB820C237B8207F108031946064844
:10107000FFF7CCF801210448FFF782F900BF2037C1
:10108000BD4680BD000402400010014080B582B022
:1010900000AF7860396013E000BF7B681B889BB2AB
:1010A00003F04003002BF8D03B681B78DBB29BB207
:1010B00019467868FFF783F93B685A1C3A601B7839
:1010C0003B681B78DBB2002BE6D100BF0837BD467A
:1010D00080BD80B487B000AF7860396000237B6149
:1010E0003B68013B3B6118E07B697A6813441B78DD
:1010F000FB607B697A6813443A6979680A4412781C
:101100001A703B697A681344FA68D2B21A707B6924
:1011100001337B613B69013B3B617A693B699A42E0
:10112000E2DB00BF1C37BD4680BC704780B586B08F
:1011300000AFF860B9607A6000237B611DE07B69D5
:101140005A1C7A611A46BB689818FA681A4B83FBD6
:1011500002139910D317C91A0B469B000B445B006E
:10116000D11ACBB23033DBB20370FB68124A82FB78
:1011700003129210DB17D31AFB60FB68002BDED141
:1011800007E07B695A1C7A611A46BB681344302217
:101190001A707A697B689A42F3DB7969B868FFF75D
:1011A00098FF7B69BA68134400221A707B6918465D
:1011B0001837BD4680BD00BF67666666B0B588B0AB
:1011C00000AFF860B9607A60F86803F0B1FA0346DE
:1011D000FB61F86903F058FA03461946F86803F012
:1011E0009DF90346BB610022B968F869FFF79EFFCD
:1011F00078617B68002B2CD07B69BA6813442E225F
:101200001A70B86902F032FE04460D46786802F0A2
:101210001BFE02460B464FF00000104901F01EFC79
:1012200002460B462046294602F074FE03460C4651
:101230001846214603F01EF90346BB61B86903F066
:1012400077FA7B690133BA6813447A681946FFF765
:101250006DFF00BF2037BD46B0BD00BF0000244079
:1012600080B489B000AF78600023BB6100237B614C
:101270000023FB6102233B610023FB600223BB6070
:10128000474B9B6803F00C03BB61BB69042B07D081
:10129000082B09D0002B3DD17B68424A1A603DE003
:1012A0007B68414A1A6039E03D4B5B689B0D03F057
:1012B0000103FB603A4B5B6803F03F03BB60FB68D4
:1012C000002B0CD0384ABB68B2FBF3F3344A5268A7
:1012D0009209C2F3080202FB03F3FB610BE0314AFF
:1012E000BB68B2FBF3F32E4A52689209C2F30802BC
:1012F00002FB03F3FB612A4B5B681B0C03F0030347
:1013000001335B003B61FA693B69B2FBF3F27B6836
:101310001A6003E07B68234A1A6000BF204B9B6879
:1013200003F0F003BB61BB691B09BB611F4ABB69CA
:1013300013441B78DBB27B617B681A687B69DA40F7
:101340007B685A60164B9B6803F4E053BB61BB6932
:101350009B0ABB61154ABB6913441B78DBB27B61F6
:101360007B685A687B69DA407B689A600C4B9B68A3
:1013700003F46043BB61BB695B0BBB610B4ABB6998
:1013800013441B78DBB27B617B685A687B69DA4067
:101390007B68DA6000BF2437BD4680BC704700BF61
:1013A000003802400024F40000127A009800002067
:1013B00080B483B000AF78600B46FB70FB78002BE5
:1013C00006D00949084B1A6B7B6813430B6306E090
:1013D0000549054B1A6B7B68DB4313400B6300BF69
:1013E0000C37BD4680BC70470038024080B483B0E3
:1013F00000AF78600B46FB70FB78002B06D00949E4
:10140000084B1A6C7B6813430B6406E00549054BD7
:101410001A6C7B68DB4313400B6400BF0C37BD467E
:1014200080BC70470038024080B483B000AF786061
:101430000B46FB70FB78002B06D00949084B5A6C11
:101440007B6813434B6406E00549054B5A6C7B6887
:10145000DB4313404B6400BF0C37BD4680BC704774
:101460000038024080B483B000AF78600B46FB7058
:10147000FB78002B06D00949084B5A6A7B68134356
:101480004B6206E00549054B5A6A7B68DB43134013
:101490004B6200BF0C37BD4680BC7047003802402D
:1014A00080B500AF01214FF48070FFF7DBFF002112
:1014B0004FF48070FFF7D6FF00BF80BD80B485B0C9
:1014C00000AF786039600023FB600023FB727B680B
:1014D0005B68FB60FB6823F0407323F48073FB6060
:1014E0003B681B791A023B681B681343FA68134375
:1014F000FB607B68FA685A607B689B68FB60FA68EF
:10150000174B1340FB603B681A693B68DB681A4362
:101510003B689B681A433B685B795B001343FA683E
:101520001343FB607B68FA689A607B68DB6AFB6048
:10153000FB6823F47003FB603B681B7D013BDAB260
:10154000FB7A1343FB72FB7A1B05FA681343FB60BB
:101550007B68FA68DA6200BF1437BD4680BC70470A
:10156000FDF7FFC080B483B000AF78600B46FB701E
:10157000FB78002B06D07B689B6843F001027B68F8
:101580009A6005E07B689B6823F001027B689A60A3
:1015900000BF0C37BD4680BC704780B485B000AF3B
:1015A0007860084611461A460346FB700B46BB702E
:1015B00013467B700023FB600023BB60FB78092B84
:1015C00023D97B68DB68FB60FB78A3F10A02134632
:1015D0005B001344072202FA03F3BB60BB68DB43E2
:1015E000FA681340FB607978FB78A3F10A0213468E
:1015F0005B00134401FA03F3BB60FA68BB68134352
:10160000FB607B68FA68DA601EE07B681B69FB6040
:10161000FA7813465B001344072202FA03F3BB6017
:10162000BB68DB43FA681340FB607978FA781346AD
:101630005B00134401FA03F3BB60FA68BB68134311
:10164000FB607B68FA681A61BB78062B21D87B683F
:101650005B6BFB60BB785A1E13469B0013441F2232
:1016600002FA03F3BB60BB68DB43FA681340FB601C
:10167000F978BB785A1E13469B00134401FA03F312
:10168000BB60FA68BB681343FB607B68FA685A6307
:1016900047E0BB780C2B21D87B681B6BFB60BB78C9
:1016A000DA1F13469B0013441F2202FA03F3BB60A8
:1016B000BB68DB43FA681340FB60F978BB78DA1F3C
:1016C00013469B00134401FA03F3BB60FA68BB683E
:1016D0001343FB607B68FA681A6322E07B68DB6A6D
:1016E000FB60BB78A3F10D0213469B0013441F223D
:1016F00002FA03F3BB60BB68DB43FA681340FB608C
:10170000F978BB78A3F10D0213469B00134401FA4C
:1017100003F3BB60FA68BB681343FB607B68FA683D
:10172000DA6200BF1437BD4680BC704780B483B016
:1017300000AF78607B689B6843F080427B689A606A
:1017400000BF0C37BD4680BC704780B483B000AF8B
:1017500078607B68DB6C9BB218460C37BD4680BC5A
:10176000704780B485B000AF78600B46FB700023F3
:10177000FB737B681A68FB781340002B02D00123AF
:10178000FB7301E00023FB73FB7B18461437BD4657
:1017900080BC704780B483B000AF78600B46FB70AC
:1017A0007B68FA781A70012318460C37BD4680BC56
:1017B000704780B485B000AF786039600023FB606B
:1017C0000AE07B685A1C7A603A68511C39601278CA
:1017D0001A70FB680133FB603B681B78002BF0D16B
:1017E000FB6818461437BD4680BC704780B586B08C
:1017F00000AFF8607A603B600B46FB7200237B61B0
:101800007B68013B7B603B68092B1DD93B681D4A07
:10181000A2FB0323DB08F97A7A68F868FFF7E6FF92
:1018200078617B69FA681344FB6010E0FB7A194623
:10183000F868FFF7AFFFFB680133FB607B6901339A
:101840007B617B68013B7B607B68002BEEDC396849
:101850000C4BA3FB0123DA0813469B0013445B00E7
:10186000CA1AD3B23033DBB21946F868FFF792FFD9
:1018700002467B6913447B617B6918461837BD4675
:1018800080BD00BFCDCCCCCC80B586B000AFF860B9
:101890007A603B600B46FB7200237B613B68002B48
:1018A00003DA3B685B423B6101E03B683B617B687C
:1018B000013B7B603B69092B1FD93B68002B0CDA8D
:1018C0003B692E4AA2FB0323DB085B42F97A7A6864
:1018D000F868FFF7D9FF78610AE03B69274AA2FB65
:1018E0000323DB08F97A7A68F868FFF7CDFF78619F
:1018F0007B69FA681344FB6025E03B68002B11DA32
:101900007B68013B7B600DE0FB7A1946F868FFF7C6
:1019100041FFFB680133FB607B6901337B617B68BE
:10192000013B7B607B68002BEEDC3B68002B0ADA16
:101930002D21F868FFF72EFF02467B6913447B6177
:10194000FB680133FB6039690C4BA3FB0123DA0808
:1019500013469B0013445B00CA1AD3B23033DBB288
:101960001946F868FFF716FF02467B6913447B614E
:101970007B6918461837BD4680BD00BFCDCCCCCCA6
:1019800080B588B002AFF8607A601A460B46FB72E9
:101990001346BB7200237B617B68013B7B603B6A23
:1019A0001B09002B20D03B6A1B09BA7AF97A0093F5
:1019B00013467A68F868FFF7E3FF02467B69134431
:1019C0007B617B69FA681344FB6010E0FB7A19467F
:1019D000F868FFF7DFFEFB680133FB607B690133CA
:1019E0007B617B68013B7B607B68002BEEDC3B6AA4
:1019F00003F00F03092B0BD83B6ADBB203F00F0394
:101A0000DBB23033DBB21946F868FFF7C3FE19E0EA
:101A1000BB7A002B0BD03B6ADBB203F00F03DBB2C7
:101A20003733DBB21946F868FFF7B4FE0AE03B6AC9
:101A3000DBB203F00F03DBB25733DBB21946F868B1
:101A4000FFF7A8FE7B6901337B617B691846183775
:101A5000BD4680BD80B58AB002AFF860B9607A60DB
:101A60003B600023BB6100237B61FB68002B00F01F
:101A7000FC80FB6800221A70F7E07B681B78252B3E
:101A80000BD0FB685A1CFA607A68511C7960127896
:101A90001A707B6901337B61E7E07B6801331B7857
:101AA000252B0BD1FB685A1CFA6025221A707B6823
:101AB00002337B607B6901337B61D6E02023FB77B7
:101AC0000023BB777B6801337B607B681B78302BFE
:101AD00014D13023FB777B6801337B600EE0BB7F42
:101AE0001A46920013445B00DAB27B681B781344F9
:101AF000DBB2303BBB777B6801337B607B681B7854
:101B00002F2B03D97B681B78392BE8D9BA7F7B69E7
:101B100013441A46BB689A4205D9BB68DAB27B699E
:101B2000DBB2D31ABB777B681B78583B202B00F2C3
:101B30008E8001A252F823F0091C00084F1C0008F7
:101B40004F1C00084F1C00084F1C00084F1C0008C9
:101B50004F1C00084F1C00084F1C00084F1C0008B9
:101B60004F1C0008391C0008BD1B00084F1C000852
:101B70004F1C00084F1C00084F1C0008BD1B00082C
:101B80004F1C00084F1C00084F1C00084F1C000889
:101B90004F1C00084F1C00084F1C00084F1C000879
:101BA0004F1C0008251C00084F1C0008D51B00080E
:101BB0004F1C00084F1C0008ED1B0008B87F3B6855
:101BC0001A1D3A601B68F97F0246F868FFF75CFE51
:101BD000B8613FE0B87F3B681A1D3A601B68F97F27
:101BE0000246F868FFF702FEB86133E0B87F3B6851
:101BF0001A1D3A601B68F97F009300230246F868BB
:101C0000FFF7BEFEB86125E0B87F3B681A1D3A6059
:101C10001B68F97F009301230246F868FFF7B0FEC6
:101C2000B86117E03B681A1D3A601B681946F868EE
:101C3000FFF7BFFDB8610DE03B681A1D3A601B68F5
:101C4000DBB21946F868FFF7A5FDB86102E04FF076
:101C5000FF3325E07B6801337B60BB69FA6813447E
:101C6000FB607A69BB6913447B617B681B78002B3E
:101C700004D07A69BB689A42FFF4FFAE7A69BB6808
:101C80009A4203D2FB6800221A7008E0FB68013B0D
:101C9000FB60FB6800221A707B69013B7B617B69FA
:101CA00018462037BD4680BD80B584B000AFF860CF
:101CB000B9607A607B68BA686421F868FFF7CAFE89
:101CC000034618461037BD4680BD0EB480B585B0BA
:101CD00000AF786007F12003BB60BA68F9697868E3
:101CE000FFF7E2FFF860FB6818461437BD46BDE811
:101CF000804003B0704780B487B000AF786039602F
:101D000000237B6100233B610023FB6000237B6198
:101D100076E001227B6902FA03F33B613B681A68B3
:101D20003B691340FB60FA683B699A4265D17B6866
:101D30001A687B695B00032101FA03F3DB431A4055
:101D40007B681A607B681A683B681B7919467B6957
:101D50005B0001FA03F31A437B681A603B681B7946
:101D6000012B03D03B681B79022B2ED17B689A682C
:101D70007B695B00032101FA03F3DB431A407B68B4
:101D80009A607B689A683B685B7919467B695B005F
:101D900001FA03F31A437B689A607B685A687B698F
:101DA0009BB2194601238B40DB431A407B685A6083
:101DB0007B685B683A68927911467A6992B201FA57
:101DC00002F292B21A437B685A607B68DA687B69D8
:101DD0009BB25B00032101FA03F3DB431A407B68EB
:101DE000DA607B68DA683B68DB7919467B695B00FF
:101DF00001FA03F31A437B68DA607B6901337B6184
:101E00007B690F2B85D900BF1C37BD4680BC70474E
:101E100080B483B000AF78600B467B8013467B7044
:101E20007B78002B03D07B687A881A8302E07B687A
:101E30007A885A8300BF0C37BD4680BC704780B497
:101E400083B000AF78600B467B807B685A697B88E3
:101E50005A407B685A6100BF0C37BD4680BC704752
:101E600080B485B000AF78600B467B8013467B70F2
:101E70000023FB600023BB607A787B8803F00703B4
:101E80009B0002FA03F3FB607B88DB089BB21846D9
:101E90007B88DB089BB21A467B68083253F8222005
:101EA0007B8803F007039B000F2101FA03F3DB4358
:101EB00002EA03017B6800F1080243F822107B88E4
:101EC000DB089BB21A467B68083253F82220FB6875
:101ED0001343BB607B88DB089BB21A467B680832E1
:101EE000B96843F8221000BF1437BD4680BC704764
:101EF00080B500AF124A124B1B6843F00103136018
:101F00000F4B00229A600E4A0D4B1B6823F084731E
:101F100023F4803313600A4B0A4A5A60084A084B7C
:101F20001B6823F480231360054B0022DA6000F065
:101F30000DF8054B4FF000629A6000BF80BD00BFF6
:101F4000003802401030002400ED00E080B483B07F
:101F500000AF00237B6000233B60354A344B1B6895
:101F600043F480331360324B1B6803F400333B604F
:101F70007B6801337B603B68002B03D17B68B3F542
:101F8000A06FF0D12A4B1B6803F40033002B02D062
:101F900001233B6001E000233B603B68012B42D101
:101FA000234A234B1B6C43F080531364214A214B7B
:101FB0001B6843F4804313601D4A1D4B9B6893606C
:101FC0001B4A1B4B9B6843F400439360184A184B11
:101FD0009B6843F4A0539360154B174A5A60144A08
:101FE000134B1B6843F08073136000BF104B1B68DA
:101FF00003F00073002BF9D0104B40F205621A6019
:102000000B4A0B4B9B6823F003039360084A084B71
:102010009B6843F00203936000BF054B9B6803F08D
:102020000C03082BF9D100BF0C37BD4680BC7047AC
:10203000003802400070004008544007003C024055
:1020400080B485B000AF78600A4B1B68002B02D1CA
:10205000084B094A1A60074B1B68FB60054B1A685E
:102060007B681344034A1360FB6818461437BD4667
:1020700080BC704708090020DC0A002080B400AF53
:10208000094B00221A60084B00225A60064B0022BE
:102090009A60054B0022DA60034B044A5A6100BF84
:1020A000BD4680BC704700BF003C0140FFFF7F0081
:1020B00080B485B000AF78600023FB60344BFB60D8
:1020C0007B689B79002B4FD03149314B1A687B6874
:1020D0001B68DB4313400B602D492D4B5A687B680E
:1020E0001B68DB4313404B607B681B791A46FB6817
:1020F0001344FB60FB68FA6811687A6812680A4347
:102100001A602349224B9A687B681B68DB431340A3
:102110008B601F491E4BDA687B681B68DB431340EA
:10212000CB607B685B79102B0ED11949184B9A68EC
:102130007B681B6813438B601549154BDA687B6815
:102140001B681343CB601DE0114BFB607B685B7920
:102150001A46FB681344FB60FB68FA6811687A68EA
:1021600012680A431A600DE07B681B791A46FB6807
:102170001344FB60FB68FA6811687A681268D243FE
:102180000A401A6000BF1437BD4680BC704700BFCC
:10219000003C014080B485B000AF78600023FB7341
:1021A0000023BB600C4B1A687B681340BB600A4B72
:1021B0005A697B681340002B05D0BB68002B02D006
:1021C0000123FB7301E00023FB73FB7B18461437EC
:1021D000BD4680BC704700BF003C014080B483B066
:1021E00000AF7860034A7B68536100BF0C37BD467F
:1021F00080BC7047003C014080B485B000AF78607F
:102200000023FB730023BB730F237B737B68DB7896
:10221000002B39D0274BDB68DB431B0ADBB203F012
:102220000703FB73FB7BC3F10403BB737A7BFB7B6C
:1022300042FA03F37B737B685B781A46BB7B02FA36
:1022400003F3FB737B689A787B7B1340DAB2FB7BEA
:102250001343FB73FB7B1B01FB73174A7B681B78E3
:102260001344FA7B83F80023134A7B681B785B09CD
:10227000DBB218467B681B7803F01F03012101FACB
:1022800003F342F820300FE00B497B681B785B09B1
:10229000DBB218467B681B7803F01F0301229A40CB
:1022A00000F1200341F8232000BF1437BD4680BC55
:1022B000704700BF00ED00E000E100E080B584B0B1
:1022C00000AF03460A46FB801346BB80B7F90630D1
:1022D000002B03D0B7F90430002B01D1002331E0EB
:1022E000082002F051FA0346FB60FB68002B01D185
:1022F000002327E0FB68FA881A80FB68BA885A80B6
:10230000B7F90630B7F9042002FB03F3DB001846E7
:1023100002F03AFA03461A46FB685A60FB685B68AB
:10232000002B01D100230DE0FB685868B7F9063097
:10233000B7F9042002FB03F3DB001A46002102F088
:10234000DBFCFB6818461037BD4680BD90B587B0F2
:1023500000AF78600B467B8013463B80B7F90020C6
:10236000B7F9023011461846FFF7A8FFF860FB687E
:102370005B687B61FB687A881A80FB683A885A80C0
:1023800000237B8212E07A6902F108037B61B7F9CE
:102390001230DB0079680B44D3E90034C2E9003421
:1023A000B7F912309BB201339BB27B82B7F912208E
:1023B000B7F90230B7F9001001FB03F39A42E2DBF0
:1023C000FB6818461C37BD4690BD90B486B000AF80
:1023D000F860B96011461A460B46FB801346BB8075
:1023E000BB685B687B6100237B822CE000233B821F
:1023F0001CE0B7F91220B7F90630013B9A420CD124
:10240000B7F91020B7F90430013B9A4205D17B6936
:10241000D3E90034FA68C2E900347B6908337B6190
:10242000B7F910309BB201339BB23B82BB68B3F962
:102430000230B7F910209A42DBDBB7F912309BB2B9
:1024400001339BB27B82BB68B3F90030B7F912202D
:102450009A42CBDB00BF1837BD4690BC70470000E6
:1024600090B484B000AF78607B681B685B68FB60E9
:1024700000237B810FE0FA684FF000034FF0000467
:10248000C2E90034FB680833FB60B7F90A309BB23D
:1024900001339BB27B81B7F90A207B681B68B3F9D3
:1024A000003019467B681B68B3F9003003FB01F369
:1024B0009A42E0DB7B681B685B68FB6000233B8122
:1024C00014E0FA684FF000030F4CC2E900347B6857
:1024D0001B68B3F900300133DB00FA681344FB607A
:1024E000B7F908309BB201339BB23B817B681B6814
:1024F000B3F90030B7F908209A42E2DB00BF103789
:10250000BD4690BC704700BF0000F03F90B486B05D
:1025100000AF786039603B685B687B610023FB81BA
:102520002EE07B681B685A68B7F90E30DB00134455
:102530003B610023BB8116E07B6903F108027A61ED
:10254000D3E900343A69C2E900347B681B68B3F907
:102550000230DB003A6913443B61B7F90C309BB29F
:1025600001339BB2BB813B68B3F90230B7F90C2051
:102570009A42E1DBB7F90E309BB201339BB2FB818B
:102580003B68B3F90030B7F90E209A42C9DB00BFAF
:102590001837BD4690BC704790B589B000AFF86061
:1025A000B9607A60BB685B68FB617B685B68BB6134
:1025B000FB681B685B687B6100237B821BE07C6996
:1025C00004F108037B61FB6903F10802FA61D3E9B6
:1025D0000001BB6903F10802BA61D3E9002301F0ED
:1025E000E7FA02460B46C4E90023B7F912309BB262
:1025F00001339BB27B82B7F91220BB68B3F900307C
:102600001946BB68B3F9023003FB01F39A42D6DBEB
:1026100000BF2437BD4690BD90B589B000AFF860CB
:10262000B9607A60BB685B68FB617B685B68BB61B3
:10263000FB681B685B687B6100237B821BE07C6915
:1026400004F108037B61FB6903F10802FA61D3E935
:102650000001BB6903F10802BA61D3E9002301F06C
:10266000A5FA02460B46C4E90023B7F912309BB223
:1026700001339BB27B82B7F91220BB68B3F90030FB
:102680001946BB68B3F9023003FB01F39A42D6DB6B
:1026900000BF2437BD4690BDB0B58AB000AFF8602A
:1026A000B9607A60FB681B685B68FB6100237B8311
:1026B00062E000233B8352E0BB685A68B7F91A30E6
:1026C000B968B1F9021001FB03F3DB0013447B622C
:1026D0007B685A68B7F91830DB0013443B62FA692B
:1026E0004FF000034FF00004C2E900340023FB82E6
:1026F00025E0FB69D3E900457B6AD3E900013B6A29
:10270000D3E9002301F006FC02460B462046294689
:1027100001F04EFA03460C46FA69C2E900347B6ABE
:1027200008337B627B68B3F90230DB003A6A1344FA
:102730003B62B7F916309BB201339BB2FB82BB6898
:10274000B3F90230B7F916209A42D2DBFB6908339D
:10275000FB61B7F918309BB201339BB23B837B68B6
:10276000B3F90230B7F918209A42A5DBB7F91A304D
:102770009BB201339BB27B83BB68B3F90030B7F9DE
:102780001A209A4295DB00BF2837BD46B0BD2DE91F
:10279000F0438FB000AFF860B960BB685B68D3E905
:1027A0000023C7E90C23BB685B68D3E90223C7E9B0
:1027B0000A23BB685B68D3E90423C7E90823BB6825
:1027C0005B68D3E90623C7E90623D7E90623D7E9DF
:1027D0000C0101F09FFB02460B4690469946D7E953
:1027E0000823D7E90A0101F095FB02460B46404653
:1027F000494601F0DBF902460B46C7E90423FB68B2
:102800001B685E68D7E90423D7E9060101F0ACFC38
:1028100002460B46C6E90023FB681B685B6803F1B0
:1028200008063B6A3B607B6A83F000437B60D7E924
:102830000423D7E9000101F097FC02460B46C6E9E4
:102840000023FB681B685B6803F11006BC6AFB6A27
:1028500083F00045D7E904232046294601F084FC93
:1028600003460C46C6E90034FB681B685B6803F14D
:102870001805D7E90423D7E90C0101F075FC0346DC
:102880000C46C5E9003400BF3C37BD46BDE8F083C7
:1028900080B485B000AF786039600023FB817B682D
:1028A0001B88FB817B68284A934213D07B68274AA8
:1028B00093420FD07B68B3F1804F0BD07B68244AE2
:1028C000934207D07B68234A934203D07B68224A15
:1028D000934208D1FB8923F07003FB813B685A883F
:1028E000FB891343FB817B681C4A93420CD07B68B5
:1028F0001B4A934208D0FB8923F44073FB813B6859
:102900001A89FB891343FB817B68FA891A803B682B
:102910005A687B68DA623B681A887B681A857B682C
:10292000094A934203D07B68084A934204D13B682A
:102930009B7A9AB27B681A867B6801229A8200BFD2
:102940001437BD4680BC70470000014000040140C0
:102950000004004000080040000C0040001000404F
:102960000014004080B483B000AF78600B46FB7069
:10297000FB78002B08D07B681B889BB243F00103D7
:102980009AB27B681A8007E07B681B889BB223F0B1
:1029900001039AB27B681A8000BF0C37BD4680BC29
:1029A000704780B483B000AF78600B467B801346DD
:1029B0007B707B78002B08D07B689B899AB27B88E0
:1029C00013439AB27B689A8109E07B689B899AB22B
:1029D0007B88DB439BB213409AB27B689A8100BF2D
:1029E0000C37BD4680BC704780B485B000AF7860BE
:1029F0000B467B800023FB730023BB8100237B817C
:102A00007B681B8A9AB27B881340BB817B689B8959
:102A10009AB27B8813407B81BB89002B05D07B89D0
:102A2000002B02D00123FB7301E00023FB73FB7B2F
:102A300018461437BD4680BC704780B483B000AFE1
:102A400078600B467B807B88DB439AB27B681A8276
:102A500000BF0C37BD4680BC704700002DE9F04F29
:102A6000DFF8F0928DB006460F4614461D4600F082
:102A700073F999F90080B8F1FF3FCDE9000136D034
:102A800022462B462046294601F0DEFC834670BBD9
:102A900032463B463046394601F0D6FC002282469B
:102AA0000023002840F0A0803046394601F09AFC0F
:102AB00010B3002200232046294601F093FC8346F0
:102AC00000286AD001229C4B029200210022CDF8FE
:102AD00028A0CDE90467CDE90645CDE908120393A6
:102AE000B8F1000F45D0954C0023CDE90034DDE965
:102AF00000010DB0BDE8F08FDDE9000100F032FF0C
:102B00008046002800F08B804FF0000A4FF0000B49
:102B100052465B46DDE9000101F064FC0028E6D086
:102B20003046394600F01EFF0028E0D020462946F6
:102B300000F018FF0028DAD099F900307E4A03929D
:102B400004210022022BCDE90467CDE90645CDE939
:102B500008AB02910A9203D002A800F009FF68B9FD
:102B600001F00CFE2223036008E000230024CDE9DD
:102B7000083402A800F0FCFE002830D00A9B1BB1EC
:102B800001F0FCFD0A9B0360DDE90834CDE9003467
:102B9000DDE900010DB0BDE8F08F2046294600F0C8
:102BA000E1FE0028A3D0002200232046294601F0A0
:102BB00023FC00289BD099F900305F4ACDF828B05B
:102BC0000121CDE90467CDE9064502910392002B6E
:102BD000CBD05B490020022BCDE90801C9D101F01F
:102BE000CDFD21230360C9E72046294601F0FAFB09
:102BF00000283FF47CAF514B4F49CDF828B001205D
:102C00000022B8F1020FCDE90467CDE90645029034
:102C10000391CDE90823ACD1CDE9002367E7304625
:102C2000394600F09FFE00283FF46EAF204629464B
:102C300000F098FE00283FF467AFDDE9002310465E
:102C4000194601F001FC002858D1032399F90080AE
:102C50000293394B0A900393CDE90467CDE9064509
:102C60000022002330463946B8F1000F26D1354FF7
:102C70004FF06046CDE9086701F0BEFB00283FF445
:102C80006BAF0022304B2046294601F043F9044641
:102C90000D4600F075FE02460B462046294601F01F
:102CA000A1FB40BB294B99F900804FF06042CDE970
:102CB0000823B8F1020F7FF44FAF51E7244F0026ED
:102CC000CDE9086701F098FB0028F2D000221E4BE6
:102CD0002046294601F01EF904460D4600F050FE3C
:102CE00002460B462046294601F07CFB18B9144BDE
:102CF0000022CDE9082399F90080DAE799F90090DC
:102D00000D4BCDF828800122CDE90467CDE90645B9
:102D100002920393B9F1000F3FF427AF0022002382
:102D20001046194601F020FAB9F1020FCDE9080169
:102D30003FF455AF1DE700BF805000080000F03F92
:102D40000000F0FFFFFFEF470000E03FFFFFEFC78D
:102D50000000F07FA80000202DE9F04F23F000478D
:102D600057EA020493B037D0674C21F00046A642E0
:102D700083460D4629DC9A46964625D0A74224DC98
:102D8000614CA74279D0002D89468046CDE90023C9
:102D900077DB0024BEF1000F2CD15B4B9F4200F08B
:102DA0008B805A4B9F4261D0BAF1804F00F0BA83BA
:102DB000574B9A451ED1002D1CDB4046494613B0A7
:102DC000BDE8F04F00F00EBD58B106F1404606F5E3
:102DD000801656EA0B0306D14C49002013B0BDE81B
:102DE000F08FB742CCDD4B4813B0BDE8F04F00F098
:102DF000C1BD00244046494600F0B0FDBBF1000FC4
:102E000019D126B1414B25F040429A4213D1BAF173
:102E1000000FC0F2BC83002DE0DA06F1404606F553
:102E2000801656EA040300F08F84012CD6D101F1FC
:102E300000431946D2E7ED0F013D54EA05034ED099
:102E4000354B9F426EDD03F104739F4240F3E883EC
:102E5000324B9E424EDDBAF1000F4EDD28A3D3E97E
:102E600000231046194601F055F8B7E7BAF1000FF4
:102E7000C0F23C8440464946B0E7BEF1000F82D024
:102E8000A3E7274B9F4228DCA3F154739F4280DDC8
:102E90003B15A3F2FF33142B40F33E84C3F13403FC
:102EA0002EFA03F202FA03F39E457FF472AF02F0AA
:102EB0000102C2F102046DE706F1404303F58013FD
:102EC00053EA0B0388D0154B9E4240F33283BAF18C
:102ED000000F12DBDDE9000180E702245AE74246D9
:102EE0004B464046494600F061FE02460B4601F063
:102EF0003BF973E7BAF1000FB0DB002000216DE76A
:102F00009C7500883CE4377E0000F07F0000F03FB5
:102F10000000E03F845000080000E041FFFFEF3F69
:102F2000FFFF3F43B6F5801F4FF0000205DAD44B98
:102F300000F0F0FF6FF034020E463315D14FC6F3A8
:102F40001306A3F2FF33134446F07F5ABE421A46DB
:102F50000D934AF4401A40F32183CB4B9E4240F339
:102F6000FD83134601330D93C84B0022CDE90623A0
:102F700000270026CDE90867CDE90E67AAF5801A7B
:102F80000027024653465146CDE90A23DDE90623D0
:102F900000F00CFEDDE9062380468946DDE90A01E2
:102FA00000F006FE02460B460020B84901F0DCF8AE
:102FB0000A460146CDE910121346494602464046EC
:102FC00000F0A8FF4FEA6A0343F000538C468346A3
:102FD00003F50023CDE904BCDA468B46D91900235A
:102FE000CDE902AB0293DDE902AB002006460F46B5
:102FF00002460B465046594600F08CFF02460B46EF
:103000004046494600F0D2FDDDE906238046894668
:103010003046394600F0CAFD02460B46DDE90A019A
:1030200000F0C4FD52465B4600F074FF02460B46BA
:103030004046494600F0BAFDDDE9102300F06AFF82
:10304000DDE90467CDE9060132463B4630463946A4
:1030500000F060FF78A3D3E9002306460F4600F096
:1030600059FF77A3D3E9002300F0A2FD32463B4687
:1030700000F050FF74A3D3E9002300F099FD32461D
:103080003B4600F047FF72A3D3E9002300F090FD18
:1030900032463B4600F03EFF6FA3D3E9002300F029
:1030A00087FD32463B4600F035FF6DA3D3E9002390
:1030B00000F07EFD3246804689463B463046394622
:1030C00000F028FF02460B464046494600F022FF2A
:1030D000524606460F465B46DDE9040100F068FDF6
:1030E000DDE9062300F016FF32463B4600F060FDA6
:1030F0005246804689465B465046594600F00AFFD4
:103100000022634BCDE90A0100F052FD42464B46D6
:1031100000F04EFD02980F46064632463B465046AA
:10312000594600F0F7FE002282468B46584B304647
:10313000394600F03BFDDDE90A2300F037FD024689
:103140000B464046494600F031FDDDE9042300F01E
:10315000E1FE3246804689463B46DDE9060100F045
:10316000D9FE02460B464046494600F021FD804606
:10317000894602460B4650465946CDE904AB00F05D
:1031800017FDDDE902AB38A3D3E9002350460F4613
:1031900000F0C0FEDDE90423CDE9020139465046C6
:1031A00000F004FD02460B464046494600F0FEFC96
:1031B0002FA3D3E9002300F0ADFE2FA3D3E9002312
:1031C000804689465046394600F0A4FE02460B462A
:1031D0004046494600F0ECFCDDE90E2300F0E8FC37
:1031E00080460D98894600F02FFE424606460F465F
:1031F0004B46DDE9020100F0DBFCDDE9082300F0CD
:10320000D7FC32463B4600F0D3FC32463B465046A4
:103210008B4600F0CBFCDDE9082300F0C7FCDDE9BC
:10322000022300F0C3FC02460B464046494600F02C
:10323000BDFC80462EE000BFEF4E454A287ECA3FC7
:1032400065DBC9934A86CD3F01411DA96074D13F1A
:103250004D268F515555D53FFFAB6FDBB66DDB3F2C
:10326000033333333333E33F000000E009C7EE3F5D
:10327000FD033ADC09C7EE3FF5015B14E02F3EBECB
:10328000000040438E98030079B60B000000F03F29
:10329000000008408946013C54EA0503DDE90001CD
:1032A00014BFD94CD94C0023CDE9043403460C4655
:1032B000CDE9023400230293DDE9024522462B4684
:1032C00000F074FC52465B4600F024FEDDE900236A
:1032D00006460F464046494600F01CFE02460B4695
:1032E0003046394600F064FC2246804689462B462B
:1032F00050465946CDE9008900F00CFE0B460246C7
:1033000006460F464046494600F052FCC04B9942E3
:1033100004460D468A4640F3168101F13F4303F50A
:10332000E003034340F0EA81A3A3D3E90023DDE9EE
:10333000000100F03DFC3246804689463B4620466F
:10334000294600F033FC02460B464046494601F050
:1033500071F8002840F0D281A8464FEA28534FF474
:103360008012A3F2FE3342FA03F35344C3F30A522A
:10337000A84DA2F2FF321541C3F3130423EA05015D
:103380000020C2F1140B44F48014BAF1000F02467D
:103390000B4644FA0BFB30463946B8BFCBF1000B65
:1033A00000F004FC02460B4606460F46DDE900012C
:1033B00000F0FEFB4FEA0B5A0D46002480A3D3E930
:1033C00000232046294600F0A5FD32468046894666
:1033D0003B462046294600F0E9FB02460B46DDE964
:1033E000000100F0E3FB78A3D3E9002300F092FD95
:1033F00077A3D3E9002306460F462046294600F06E
:1034000089FD02460B463046394600F0D1FB0646A0
:103410000F4602460B464046494600F0C9FB42466D
:103420004B4604460D4600F0C1FB02460B463046B3
:10343000394600F0BBFB2246804689462B46204693
:10344000294600F067FD64A3D3E9002306460F4632
:1034500000F060FD62A3D3E9002300F0A7FB324631
:103460003B4600F057FD60A3D3E9002300F0A0FB2A
:1034700032463B4600F04EFD5DA3D3E9002300F049
:1034800095FB32463B4600F045FD5BA3D3E90023A4
:1034900000F08EFB32463B4600F03CFD02460B46F8
:1034A0002046294600F082FB06460F4602460B46A0
:1034B0002046294600F02EFD0022CDE900014FF004
:1034C00080433046394600F071FB02460B46DDE989
:1034D000000100F049FE424606460F464B46204694
:1034E000294600F017FD42464B4600F061FB0246BC
:1034F0000B463046394600F059FB22462B4600F079
:1035000055FB02460B4600203F4900F04FFB8A4422
:10351000BAF5801FC0F233815146DDE9042300F083
:10352000F9FC5BE4424640464B46494600F0F2FC5B
:1035300054E4BAF1000FBFF6E0ACDDE90034184600
:1035400004F100414AE4344B21F00048984540F32F
:10355000F280324B0B4403430CD132463B4600F021
:1035600025FB02460B46DDE9000100F04FFF002875
:103570003FF4F3AEDDE9040121A3D3E9002300F019
:10358000C9FC1FA3D3E9002300F0C4FC26E40246D3
:103590000B4600201C4900F0E7FD3CE4002200231C
:1035A000CDE90823CDE90E23174B00220027CDE9F2
:1035B0000623E6E4AFF30080FE822B654715973CB7
:1035C00000000000432EE63FEF39FAFE422EE63FB0
:1035D000396CA80C615C20BED0A4BE726937663E0F
:1035E000F16BD2C541BDBB3E2CDE25AF6A56113F03
:1035F00093BDBE166CC1663F3E5555555555C53FEA
:1036000059F3F8C21F6EA5010000F03F0000F0BFA3
:10361000FFFF8F40FFFF0F00FFCB904000346F3F54
:103620006B4B9E427FF766AC6A4B9E423FF713ACF2
:103630000022684B00F0BAFA57A3D3E900230646EC
:103640000F4600F067FC56A3D3E900238046894665
:103650003046394600F05EFC002282468B465E4BC7
:103660003046394600F056FC02460B464EA1D1E9E1
:10367000000100F09BFA32463B4600F04BFC02464C
:103680000B460020554900F091FA3246CDE902017F
:103690003B463046394600F03DFC02460B46DDE92C
:1036A000020100F037FC42A3D3E9002300F032FC12
:1036B00002460B465046594600F078FA02460B4641
:1036C00006460F464046494600F072FA42464B46CF
:1036D000002082468B4600F069FA02460B463046CF
:1036E000394600F063FA80468946D4E542464B46A7
:1036F0000020384900F038FDFFF770BBDDE9040118
:103700002DA3D3E9002300F005FC2BA3D3E900236C
:1037100000F000FCFFF762BBBEF1000F7FF469AB65
:10372000C3F1140347FA03F202FA03F39F422AD0CB
:103730007446FFF736BB294B98453FF70EAEDDE9DF
:1037400002239246934638E602460B4600F02EFAD4
:1037500002460B4600F008FDFFF740BB18A3D3E973
:103760000023CDE9082318A3D3E90023CDE90E23D4
:103770001B4B00224FF48027CDE9062301E45A4673
:1037800000F08AF9C9E602F00102C2F10204FFF773
:1037900008BB00BFAFF30080000000604715F73F93
:1037A00044DF5DF80BAE543E555555555555D53F44
:1037B000FE822B654715F73F9C7500883CE4377EF9
:1037C0000000004003B8E23F06D0CF43EBFD4C3E83
:1037D000FEFFEF3F0000F03F0000D03F0000E03F61
:1037E0000000F83F2DE9F8435B4F8F4305460C4638
:1037F00000F0928000290B4602466FDD0F157BD04A
:10380000A7F2FF37C3F31303F80743F480135CD424
:1038100003EBD27100260B447F105200B6461620EF
:103820004FF400110EEB01049C424FEAD2754FEAAF
:10383000420203DC1B1B04EB010E0E44013805EBB6
:1038400043034FEA5101EDD1844620244FF000415B
:1038500009E020D003EBD275013C4FEA51012B4423
:103860004FEA420220D0734501EB0C05F1DD002D3B
:1038700005EB010C09DBF0469542A3EB0E0300D9E2
:10388000013B521B0844C646E4E7BCF1000FF2DBE3
:103890000EF10108F0E79542DCD8002D05EB010C94
:1038A00044DB98460023ECE7134313D14008731020
:1038B00003F17F5303F50013F20703EB075948BFE9
:1038C00040F000404946BDE8F8835B0003EBD2734B
:1038D00052009DE7411C2DD00130E7E7064621F05C
:1038E00000473E43EFD069BB0F46D30A153F520550
:1038F000002BFAD0DE0220D4002400E004465B0056
:10390000DD0204F10100F9D5C0F1200122FA01F134
:103910000B433F1B824073E702460B4600F0FAFA66
:103920002A46234600F044F9BDE8F883BCF1000FB5
:10393000AEDAB6E701362046B9E7002020214FF085
:10394000FF34E3E702460B4600F030F902460B462F
:1039500000F00AFCB7E700BF0000F07F21F0004153
:10396000704700BF41F0004101F58010C00F704763
:103970000020704700200149704700BF0000F87F19
:10398000F0B5C1F30A5EAEF2FF36132E83B00246E5
:103990000B460C464FEAD17507462EDC002E49DB5C
:1039A0003A49314103EA010010432BD049080B404A
:1039B00053EA02070CD04FF48023132E24EA0101AE
:1039C00043FA06F444EA01040CBF4FF00047002715
:1039D0002F4B03EBC5052146D5E900453846224665
:1039E0002B4600F0E5F8CDE9000122462B46DDE943
:1039F000000100F0DBF803B0F0BD332E06DDB6F5B4
:103A0000806F40D01046194603B0F0BDAEF2134EA1
:103A10004FF0FF3121FA0EF10842F3D04908084275
:103A2000D6D04FF0804320EA010143FA0EFE4EEA61
:103A30000107CDE721F000410143E3D0C3F31301B7
:103A4000134E0143C1F1000C06EBC506D6E9006731
:103A50004CEA010C4FEA1C3C5C0C64040CF400239F
:103A600043EA040132463B4600F0A2F8CDE90001EA
:103A700032463B46DDE9000100F098F821F00044B1
:103A800044EAC571C0E700F093F8BDE7FFFF0F00FF
:103A90008850000800000000F8B5C1F30A5604463B
:103AA0000D460B4617460EBB21F0004303438646E6
:103AB00025D00022344B00F02DFA344A97420446B8
:103AC0000D460B462ADBC1F30A56363E3E4440F211
:103AD000FE72964228DC002E12DD23F0FF4323F411
:103AE000E00343EA065520462946F8BD40F2FF723E
:103AF0009642EBD102460B4600F05AF8F8BDF8BDED
:103B000016F1350F1DDA4CF250339F4222462B46F8
:103B100025DC19A1D1E9000100F03CF816A3D3E996
:103B2000002300F0F7F9F8BD22462B4614A1D1E995
:103B3000000100F02FF812A3D3E9002300F0EAF906
:103B4000F8BD23F0FF4323F4E003363643EA06557D
:103B50002046294600220E4B00F0DCF9F8BD08A1F2
:103B6000D1E9000100F016F805A3D3E9002300F025
:103B7000D1F9F8BDAFF3008059F3F8C21F6EA5016B
:103B80009C7500883CE4377E00005043B03CFFFF4A
:103B90000000903C03F0004321F0004242EA0301A0
:103BA000704700BF81F0004102E000BF83F0004396
:103BB00030B54FEA41044FEA430594EA050F08BFC8
:103BC00090EA020F1FBF54EA000C55EA020C7FEA8C
:103BD000645C7FEA655C00F0E2804FEA5454D4EB09
:103BE0005555B8BF6D420CDD2C4480EA020281EAD3
:103BF000030382EA000083EA010180EA020281EA0B
:103C00000303362D88BF30BD11F0004F4FEA01315C
:103C10004FF4801C4CEA113102D0404261EB41016B
:103C200013F0004F4FEA03334CEA133302D05242F1
:103C300063EB430394EA050F00F0A780A4F10104AD
:103C4000D5F1200E0DDB02FA0EFC22FA05F28018E7
:103C500041F1000103FA0EF2801843FA05F35941CD
:103C60000EE0A5F120050EF1200E012A03FA0EFC4C
:103C700028BF4CF0020C43FA05F3C01851EBE37176
:103C800001F0004507D54FF0000EDCF1000C7EEB93
:103C900000006EEB0101B1F5801F1BD3B1F5001FD1
:103CA0000CD349085FEA30004FEA3C0C04F10104F0
:103CB0004FEA445212F5800F80F09A80BCF1004F19
:103CC00008BF5FEA500C50F1000041EB045141EA9B
:103CD000050130BD5FEA4C0C404141EB010111F49C
:103CE000801FA4F10104E9D191F0000F04BF014647
:103CF0000020B1FA81F308BF2033A3F10B03B3F125
:103D000020020CDA0C3208DD02F1140CC2F10C02B4
:103D100001FA0CF021FA02F10CE002F11402D8BF12
:103D2000C2F1200C01FA02F120FA0CFCDCBF41EADE
:103D30000C019040E41AA2BF01EB0451294330BDAD
:103D40006FEA04041F3C1CDA0C340EDC04F114048A
:103D5000C4F1200220FA04F001FA02F340EA030061
:103D600021FA04F345EA030130BDC4F10C04C4F1A7
:103D7000200220FA02F001FA04F340EA0300294687
:103D800030BD21FA04F0294630BD94F0000F83F4D1
:103D9000801306BF81F480110134013D4EE77FEAB4
:103DA000645C18BF7FEA655C29D094EA050F08BF00
:103DB00090EA020F05D054EA000C04BF19461046E1
:103DC00030BD91EA030F1EBF0021002030BD5FEA25
:103DD000545C05D14000494128BF41F0004130BD4D
:103DE00014F580043CBF01F5801130BD01F00045A1
:103DF00045F0FE4141F470014FF0000030BD7FEA14
:103E0000645C1ABF194610467FEA655C1CBF0B460E
:103E1000024650EA013406BF52EA033591EA030F25
:103E200041F4002130BD00BF90F0000F04BF00211D
:103E3000704730B54FF4806404F132044FF0000550
:103E40004FF0000150E700BF90F0000F04BF0021C9
:103E5000704730B54FF4806404F1320410F000452F
:103E600048BF40424FF000013EE700BF42004FEA2A
:103E7000E2014FEA31014FEA02701FBF12F07F43A7
:103E800093F07F4F81F06051704792F0000F14BFA4
:103E900093F07F4F704730B54FF4607401F00045E8
:103EA00021F0004120E700BF50EA010208BF70473F
:103EB00030B54FF000050AE050EA010208BF704734
:103EC00030B511F0004502D5404261EB41014FF49D
:103ED000806404F132045FEA915C3FF4DCAE4FF0A1
:103EE00003025FEADC0C18BF03325FEADC0C18BF88
:103EF000033202EBDC02C2F1200300FA03FC20FAD9
:103F000002F001FA03FE40EA0E0021FA02F1144425
:103F1000C1E600BF70B54FF0FF0C4CF4E06C1CEA3A
:103F200011541DBF1CEA135594EA0C0F95EA0C0FAF
:103F300000F0DEF82C4481EA030621EA4C5123EA22
:103F40004C5350EA013518BF52EA033541F4801151
:103F500043F4801338D0A0FB02CE4FF00005E1FB04
:103F600002E506F00042E0FB03E54FF00006E1FB4E
:103F700003569CF0000F18BF4EF0010EA4F1FF0491
:103F8000B6F5007F64F5407404D25FEA4E0E6D41D1
:103F900046EB060642EAC62141EA55514FEAC520E2
:103FA00040EA5E504FEACE2EB4F1FD0C88BFBCF55E
:103FB000E06F1ED8BEF1004F08BF5FEA500E50F10F
:103FC000000041EB045170BD06F0004646EA0101D5
:103FD00040EA020081EA0301B4EB5C04C2BFD4EB07
:103FE0000C0541EA045170BD41F480114FF0000E00
:103FF000013C00F3AB8014F1360FDEBF002001F06E
:10400000004170BDC4F10004203C35DA0C341BDCE7
:1040100004F11404C4F1200500FA05F320FA04F0B9
:1040200001FA05F240EA020001F0004221F00041ED
:1040300010EBD37021FA04F642EB06015EEA430E60
:1040400008BF20EAD37070BDC4F10C04C4F1200590
:1040500000FA04F320FA05F001FA04F240EA020043
:1040600001F0004110EBD37041F100015EEA430E14
:1040700008BF20EAD37070BDC4F1200500FA05F234
:104080004EEA020E20FA04F301FA05F243EA0203B3
:1040900021FA04F001F0004121FA04F220EA0200C2
:1040A00000EBD3705EEA430E08BF20EAD37070BD08
:1040B00094F0000F0FD101F00046400041EB0101E8
:1040C00011F4801F08BF013CF7D041EA060195F0CA
:1040D000000F18BF704703F00046520043EB030384
:1040E00013F4801F08BF013DF7D043EA0603704771
:1040F00094EA0C0F0CEA135518BF95EA0C0F0CD07C
:1041000050EA410618BF52EA4306D1D181EA0301C1
:1041100001F000414FF0000070BD50EA410606BFBB
:104120001046194652EA430619D094EA0C0F02D100
:1041300050EA013613D195EA0C0F05D152EA033645
:104140001CBF104619460AD181EA030101F0004163
:1041500041F0FE4141F470014FF0000070BD41F0AC
:10416000FE4141F4780170BD70B54FF0FF0C4CF486
:10417000E06C1CEA11541DBF1CEA135594EA0C0FA5
:1041800095EA0C0F00F0A7F8A4EB050481EA030EF2
:1041900052EA03354FEA013100F088804FEA0333D9
:1041A0004FF0805545EA131343EA12634FEA0222A7
:1041B00045EA111545EA10654FEA00260EF0004168
:1041C0009D4208BF964244F1FD0404F5407402D2BA
:1041D0005B084FEA3202B61A65EB03055B084FEA4B
:1041E00032024FF480104FF4002CB6EB020E75EB48
:1041F000030E22BFB61A754640EA0C005B084FEA70
:104200003202B6EB020E75EB030E22BFB61A7546EC
:1042100040EA5C005B084FEA3202B6EB020E75EB37
:10422000030E22BFB61A754640EA9C005B084FEAAF
:104230003202B6EB020E75EB030E22BFB61A7546BC
:1042400040EADC0055EA060E18D04FEA051545EAAB
:1042500016754FEA06164FEAC30343EA52734FEA54
:10426000C2025FEA1C1CC0D111F4801F0BD141EACD
:1042700000014FF000004FF0004CB6E711F4801F32
:1042800004BF01430020B4F1FD0C88BFBCF5E06F12
:104290003FF6AFAEB5EB030C04BFB6EB020C5FEA22
:1042A000500C50F1000041EB045170BD0EF0004E77
:1042B0004EEA113114EB5C04C2BFD4EB0C0541EAA9
:1042C000045170BD41F480114FF0000E013C90E6A6
:1042D00045EA060E8DE60CEA135594EA0C0F08BF6A
:1042E00095EA0C0F3FF43BAF94EA0C0F0AD150EA69
:1042F00001347FF434AF95EA0C0F7FF425AF1046FC
:1043000019462CE795EA0C0F06D152EA03353FF423
:10431000FDAE1046194622E750EA410618BF52EAA0
:1043200043067FF4C5AE50EA41047FF40DAF52EA74
:1043300043057FF4EBAE12E74FF0FF3C06E000BF11
:104340004FF0010C02E000BF4FF0010C4DF804CD1E
:104350004FEA410C7FEA6C5C4FEA430C18BF7FEADE
:104360006C5C1BD001B050EA410C0CBF52EA430C0C
:1043700091EA030F02BF90EA020F0020704710F18C
:10438000000F91EA030F58BF994208BF90422CBF1B
:10439000D8176FEAE37040F0010070474FEA410C14
:1043A0007FEA6C5C02D150EA013C07D14FEA430C32
:1043B0007FEA6C5CD6D152EA033CD3D05DF8040BA3
:1043C000704700BF8446104662468C4619466346D5
:1043D00000E000BF01B5FFF7B7FF002848BF10F1AC
:1043E000000F01BD4DF808EDFFF7F4FF0CBF0120F1
:1043F00000205DF808FB00BF4DF808EDFFF7EAFF6D
:1044000034BF012000205DF808FB00BF4DF808ED27
:10441000FFF7E0FF94BF012000205DF808FB00BF1C
:104420004DF808EDFFF7CEFF94BF012000205DF8A6
:1044300008FB00BF4DF808EDFFF7C4FF34BF0120B3
:1044400000205DF808FB00BF4FEA410C7FEA6C5C7E
:1044500002D150EA013C0AD14FEA430C7FEA6C5C7E
:1044600002D152EA033C02D14FF0000070474FF0F6
:10447000010070474FEA4102B2F1E04324BFB3F5B7
:10448000001CDCF1FE5C0DD901F0004C4FEAC002CB
:104490004CEA5070B2F1004F40EB830008BF20F0AF
:1044A0000100704711F0804F21D113F13872BCBF69
:1044B00001F00040704741F480114FEA5252C2F1BE
:1044C0001802C2F1200C10FA0CF320FA02F018BF07
:1044D00040F001004FEAC1234FEAD32303FA0CFC5A
:1044E00040EA0C0023FA02F34FEA4303CCE77FEAE9
:1044F000625307D150EA01331EBF4FF0FE4040F433
:104500004000704701F0004040F0FE4040F40000E1
:10451000704700BF80F0004002E000BF81F0004122
:1045200042001FBF5FEA410392EA030F7FEA226C59
:104530007FEA236C6AD04FEA1262D2EB1363C1BFE9
:10454000D218414048404140B8BF5B42192B88BF58
:10455000704710F0004F40F4000020F07F4018BF7B
:10456000404211F0004F41F4000121F07F4118BF9B
:10457000494292EA030F3FD0A2F1010241FA03FC43
:1045800010EB0C00C3F1200301FA03F100F000432B
:1045900002D5494260EB4000B0F5000F13D3B0F1F3
:1045A000807F06D340084FEA310102F10102FE2A62
:1045B00051D2B1F1004F40EBC25008BF20F00100D2
:1045C00040EA03007047490040EB000010F4000F80
:1045D000A2F10102EDD1B0FA80FCACF1080CB2EB13
:1045E0000C0200FA0CF0AABF00EBC2505242184372
:1045F000BCBFD0401843704792F0000F81F4000117
:1046000006BF80F400000132013BB5E74FEA4103E9
:104610007FEA226C18BF7FEA236C21D092EA030F55
:1046200004D092F0000F08BF0846704790EA010FCF
:104630001CBF0020704712F07F4F04D1400028BFFC
:1046400040F00040704712F100723CBF00F50000DE
:10465000704700F0004343F0FE4040F40000704714
:104660007FEA226216BF08467FEA236301464202C0
:1046700006BF5FEA412390EA010F40F480007047D3
:104680004FF0000304E000BF10F0004348BF404279
:104690005FEA000C08BF704743F0964301464FF0B5
:1046A00000001CE050EA010208BF70474FF0000311
:1046B0000AE000BF50EA010208BF704711F0004352
:1046C00002D5404261EB41015FEA010C02BF844622
:1046D0000146002043F0B64308BFA3F18053A3F581
:1046E0000003BCFA8CF2083AA3EBC25310DB01FAC8
:1046F00002FC634400FA02FCC2F12002BCF1004F4C
:1047000020FA02F243EB020008BF20F001007047DC
:1047100002F1200201FA02FCC2F1200250EA4C0030
:1047200021FA02F243EB020008BF20EADC70704776
:104730004FEA4002B2F1FE4F0FD34FF09E03B3EBAE
:1047400012620DD94FEA002343F0004310F0004FEE
:1047500023FA02F018BF404270474FF00000704744
:1047600012F1610F01D1420205D110F0004008BFE3
:104770006FF0004070474FF000007047014B186821
:10478000704700BFAC000020024B0146186800F0E3
:1047900003B800BFAC0000202DE9F04F01F10B067B
:1047A000162E83B0054640F29E8036F0070600F1D3
:1047B000BD80B14200F2BA8000F0ECFAB6F5FC7FA1
:1047C000C0F09382730A00F0B880042B00F2798164
:1047D000B30903F1390003F1380EC300BF4F3B4466
:1047E000A3F108015C68A14206D10CE0002A80F226
:1047F000AA80E468A14206D0636823F003039A1BF1
:104800000F2AF3DD70463C69DFF8E4E2744500F0FE
:10481000AB81636823F003039A1B0F2A00F3908196
:10482000002AC7F814E0C7F810E080F29D80B3F5C5
:10483000007F80F06181DB0803F1010C99107A6838
:1048400057F83C80C4F8088001238B4007EBCC016B
:1048500013430839E1607B6047F83C40C8F80C40DE
:104860008210012494409C4200F28B801C4206D1AD
:1048700020F0030064001C4200F10400FAD007EBB2
:10488000C009CC468046DCF80C309C4507D16DE170
:10489000002A80F27B81DB689C4500F067815968C3
:1048A00021F003018A1B0F2AF2DDD3F80CC0D3F8E4
:1048B000088000939C19284646F0010642F0010545
:1048C0005E60C8F80CC0CCF808807C613C61C4F81C
:1048D0000CE0C4F808E065605A5000F061FA009BF3
:1048E00003F108041EE0102920D800F053FA102626
:1048F00018230220794F3B44A3F108025C689442DC
:1049000000F03D816368E168A66823F00303234457
:1049100028465A68F16042F001028E605A6000F049
:104920003FFA0834204603B0BDE8F08F00240C2382
:1049300020462B6003B0BDE8F08F40204FF4007399
:104940004FF03F0E4AE72344E1685A68A66842F0F8
:104950000102F16028468E605A6000F021FA0834A6
:10496000204603B0BDE8F08F234428465A6842F041
:1049700001025A6000F014FA0834204603B0BDE882
:10498000F08FBC68636823F00308B04504D3A8EB3C
:1049900006030F2B00F38580DFF85891504BD9F8B0
:1049A00000201B680132334404EB080A00F05581F3
:1049B00003F580530F3323F47F6B2BF00F0B594615
:1049C000284600F0F3F9411C024600F0FC808245C5
:1049D00000F2F780434B19685944196000F04D818B
:1049E000D9F8000001301BBFA2EB0A0A5144C9F8F4
:1049F0000020196012F0070100F01581C1F10800D4
:104A0000C1F580510244083102EB0B09C9F30B09CF
:104A1000A1EB0909494628460193009200F0C6F926
:104A2000431C9DE80C0000F04381801A484440F08C
:104A300001001968BA604944BC425060196017D03F
:104A4000B8F10F0F40F2FB806068A8F10C0222F071
:104A5000070204EB020E00F001004FF0050C1043BA
:104A60000F2A6060CEF804C0CEF808C000F21781AB
:104A70001D4BBC681A68914288BF19601B4B1A68AD
:104A80009142626888BF196022F003029642A2EB4D
:104A9000060301D80F2B04DC284600F081F900241E
:104AA00040E7A21943F0010346F00106666028467C
:104AB000BA60536000F074F90834204603B0BDE8D2
:104AC000F08F142B71D9542B00F2A380330B03F118
:104AD0006F0003F16E0EC30080E600BFD804002013
:104AE0003C0900200C09002034090020380900206E
:104AF000E0040020E00800205A0A042A5BD9142AA6
:104B000000F2AE8002F15C01C9005B3207EB010CE0
:104B10007958ACF1080C8C4500F088804A6822F086
:104B20000302934273D289688C45F7D1DCF80C20DC
:104B30007B68E260C4F808C09460CCF80C408FE653
:104B4000A11946F0010C42F00106C4F804C0284641
:104B500079613961C1F80CE0C1F808E04E60E250BB
:104B600000F01EF90834DDE67B6879E608F10108FB
:104B700018F0030F0CF1080C7FF485AE2DE0DC6813
:104B8000A34208BF02303FF43EAEBBE619441C46C8
:104B90004A68DB6854F8086F42F001024A60284610
:104BA000F3609E6000F0FCF8BCE603F15C0003F1EA
:104BB0005B0EC30012E69A0902F13901C9003832CE
:104BC000A4E7BC4254D0BC68626822F003025DE7EF
:104BD00059F80839994540F0868010F0030F00F12C
:104BE000FF30F5D17B6823EA04037B6064009C42BC
:104BF0003FF6C7AE002C3FF4C4AE1C4240467FF4E3
:104C00003EAE64001C4200F10400FAD037E68C4648
:104C10008CE7B3F5AA7F15D8F30B03F1780003F105
:104C2000770EC300DAE54FF48051EDE67B68921011
:104C3000012101FA02F213437B60624679E7012306
:104C4000536029E740F25452934222D8B30C03F147
:104C50007D0003F17C0EC300C0E503F1100BAEE64E
:104C6000542A29D81A0B02F16F01C9006E324DE7A0
:104C7000204B196859441960B2E6CAF30B000028AA
:104C80007FF4AEAE08EB0B03BA6843F00103536048
:104C9000EEE67F204FF47E734FF07E0E9EE504F12A
:104CA00008012846009300F0E3F8009B1968DFE64E
:104CB00001204FF00009BCE6B2F5AA7F05D8DA0B57
:104CC00002F17801C900773220E740F254518A425C
:104CD00005D89A0C02F17D01C9007C3216E74FF429
:104CE0007E717E2212E77B6880E7F00806F10803F8
:104CF00000E600BF0C09002070B4860746D0541EA1
:104D0000002A41D0CAB2034602E014F1FF343BD37B
:104D100003F8012B9D07F8D1032C2ED9CDB245EA1B
:104D200005250F2C45EA054519D903F11002264641
:104D3000103E0F2E42F8105C42F80C5C42F8085C02
:104D400042F8045C02F11002F2D8A4F1100222F041
:104D50000F0204F00F041032032C13440DD91E4629
:104D60002246043A032A46F8045BFAD8221F22F0AE
:104D700003020432134404F003042CB1C9B21C44EE
:104D800003F8011B9C42FBD170BC704714460346DC
:104D9000C2E700BF014800F051B900BFC40A0020BB
:104DA000014800F04DB900BFC40A002038B5074CD7
:104DB0000023054608462360FDF742F9431C00D056
:104DC00038BD2368002BFBD02B6038BDD80A0020EB
:104DD000F8B5244F0C460646FFF7DCFFBB685D685C
:104DE000C4F57E610F3125F00305294421F47F616C
:104DF00021F00F01A1F58054B4F5805F07DB00219D
:104E00003046FFF7D3FFBB682B44984204D03046AE
:104E1000FFF7C6FF0020F8BD61423046FFF7C6FF2E
:104E200001300DD0104BBA6819682D1B45F00105F3
:104E30003046091B55601960FFF7B2FF0120F8BD2D
:104E400000213046FFF7B2FFBA68831A0F2BDEDD70
:104E5000064C0549246843F00103001B53600860B9
:104E6000D5E700BFD80400200C090020E00800208E
:104E7000002944D02DE9F0410D468046FFF78AFF16
:104E800055F8047C694927F00103A5F10804E218EC
:104E90008E685068B24220F003005ED0FE0750607A
:104EA0000BD455F8087CE41B01F1080EA568754584
:104EB0003B446DD0E768EF60BD6015186D68ED0785
:104EC0003ED543F001026260E350B3F5007F17D294
:104ED000DB08581C9A104D6851F83070A760012308
:104EE000934001EBC0022B43083AE2604B6041F86B
:104EF0003040FC604046BDE8F041FFF751BF7047CD
:104F00005A0A042A52D89A0902F13907FF0002F11D
:104F10003805C819CA59083890424FD0516821F055
:104F200003018B4232D292689042F7D1C368A060ED
:104F3000E3609C60C4604046BDE8F041FFF730BFCD
:104F400095683B4FBD42034440D0D068E86043F0D1
:104F5000010285606260E350B7E7FF07034407D4AE
:104F600055F8082CA41A1344A068E268C260906047
:104F7000304A126843F00100934260608C60B9D3FC
:104F80002D4B40461968FFF723FFB3E71046CDE7E6
:104F900011184968C90744D49168D268CA600344AB
:104FA00043F0010091606060E350A3E7142A16D833
:104FB00002F15C07FF0002F15B05AAE7AA100123DA
:104FC0004D6893402B434B600346B0E743F001022A
:104FD0004C610C61E560A5606260E3508AE7542A89
:104FE00006D81A0B02F16F07FF0002F16E0590E779
:104FF000B2F5AA7F06D8DA0B02F17807FF0002F1BA
:10500000770586E740F25450824206D89A0C02F1A6
:105010007D07FF0002F17C057BE74FF47E777E255C
:1050200077E743F001016160136063E7D804002073
:10503000E0040020E40800203C090020704700BF85
:10504000704700BF57616974696E672053544152BD
:10505000540D0A0000000000454E440D0A000000F7
:1050600049723A25732056723A257320513A2573B6
:1050700020493A257320563A25730A0000000000A3
:10508000706F770000000000000000000000304357
:0850900000000000000030C325
:105098000100000000000000000000000000F03FD8
:1050A800DFBC9A785634323F000000000000000050
:1050B800000000000000F03F5EBA490C022B1E40C1
:1050C8009A9999999999D93F9A9999999999B93F9A
:1050D80000000000000000000000000000000000C8
:1050E8009A9999999999B93F000000000000000029
:1050F80000000000000000000000000000000000A8
:10510800000000000000F03F000000000000F03F39
:105118000000000000000000000000000000000087
:105128007C14AE47E17A843F0000000001020304CA
:10513800010203040607080901000000B00000206E
:10514800000000009C030020040400206C040020E0
:105158000000000000000000000000000000000047
:105168000000000000000000000000000000000037
:105178000000000000000000000000000000000027
:105188000000000000000000000000000000000017
:105198000000000000000000000000000000000007
:1051A80000000000000000000000000000000000F7
:1051B80000000000000000000000000000000000E7
:1051C80000000000000000000000000000000000D7
:1051D80000000000000000000000000000000000C7
:1051E80000000000000000000100000000000000B6
:1051F8000E33CDAB34126DE6ECDE05000B0000007B
:105208000000000000000000000000000000000096
:105218000000000000000000000000000000000086
:105228000000000000000000000000000000000076
:105238000000000000000000000000000000000066
:10557800D8040020D8040020E0040020E004002023
:10558800E8040020E8040020F0040020F0040020D3
:10559800F8040020F8040020000500200005002081
:1055A800080500200805002010050020100500202F
:1055B80018050020180500202005002020050020DF
:1055C800280500202805002030050020300500208F
:1055D800380500203805002040050020400500203F
:1055E80048050020480500205005002050050020EF
:1055F800580500205805002060050020600500209F
:10560800680500206805002070050020700500204E
:1056180078050020780500208005002080050020FE
:1056280088050020880500209005002090050020AE
:105638009805002098050020A0050020A00500205E
:10564800A8050020A8050020B0050020B00500200E
:10565800B8050020B8050020C0050020C0050020BE
:10566800C8050020C8050020D0050020D00500206E
:10567800D8050020D8050020E0050020E00500201E
:10568800E8050020E8050020F0050020F0050020CE
:10569800F8050020F805002000060020000600207C
:1056A800080600200806002010060020100600202A
:1056B80018060020180600202006002020060020DA
:1056C800280600202806002030060020300600208A
:1056D800380600203806002040060020400600203A
:1056E80048060020480600205006002050060020EA
:1056F800580600205806002060060020600600209A
:105708006806002068060020700600207006002049
:1057180078060020780600208006002080060020F9
:1057280088060020880600209006002090060020A9
:105738009806002098060020A0060020A006002059
:10574800A8060020A8060020B0060020B006002009
:10575800B8060020B8060020C0060020C0060020B9
:10576800C8060020C8060020D0060020D006002069
:10577800D8060020D8060020E0060020E006002019
:10578800E8060020E8060020F0060020F0060020C9
:10579800F8060020F8060020000700200007002077
:1057A8000807002008070020100700201007002025
:1057B80018070020180700202007002020070020D5
:1057C8002807002028070020300700203007002085
:1057D8003807002038070020400700204007002035
:1057E80048070020480700205007002050070020E5
:1057F8005807002058070020600700206007002095
:105808006807002068070020700700207007002044
:1058180078070020780700208007002080070020F4
:1058280088070020880700209007002090070020A4
:105838009807002098070020A0070020A007002054
:10584800A8070020A8070020B0070020B007002004
:10585800B8070020B8070020C0070020C0070020B4
:10586800C8070020C8070020D0070020D007002064
:10587800D8070020D8070020E0070020E007002014
:10588800E8070020E8070020F0070020F0070020C4
:10589800F8070020F8070020000800200008002072
:1058A8000808002008080020100800201008002020
:1058B80018080020180800202008002020080020D0
:1058C8002808002028080020300800203008002080
:1058D8003808002038080020400800204008002030
:1058E80048080020480800205008002050080020E0
:1058F8005808002058080020600800206008002090
:10590800680800206808002070080020700800203F
:1059180078080020780800208008002080080020EF
:10592800880800208808002090080020900800209F
:105938009808002098080020A0080020A00800204F
:10594800A8080020A8080020B0080020B0080020FF
:10595800B8080020B8080020C0080020C0080020AF
:10596800C8080020C8080020D0080020D00800205F
:08597800FFFFFFFF0000020029
:0400000508000000EF
:00000001FF
